{
	"practise/Bank.sol": {
		"Bank": {
			"abi": [
				{
					"inputs": [],
					"stateMutability": "nonpayable",
					"type": "constructor"
				},
				{
					"inputs": [],
					"name": "CallFail",
					"type": "error"
				},
				{
					"inputs": [],
					"name": "deposit",
					"outputs": [],
					"stateMutability": "payable",
					"type": "function"
				},
				{
					"inputs": [],
					"name": "owner",
					"outputs": [
						{
							"internalType": "address",
							"name": "",
							"type": "address"
						}
					],
					"stateMutability": "view",
					"type": "function"
				},
				{
					"inputs": [
						{
							"internalType": "uint256",
							"name": "_amount",
							"type": "uint256"
						}
					],
					"name": "withdraw",
					"outputs": [],
					"stateMutability": "nonpayable",
					"type": "function"
				}
			],
			"devdoc": {
				"kind": "dev",
				"methods": {},
				"version": 1
			},
			"evm": {
				"assembly": "    /* \"practise/Bank.sol\":381:1086  contract Bank is IBank{... */\n  mstore(0x40, 0x80)\n    /* \"practise/Bank.sol\":495:544  constructor() {... */\n  callvalue\n  dup1\n  iszero\n  tag_1\n  jumpi\n  revert(0x00, 0x00)\ntag_1:\n  pop\n    /* \"practise/Bank.sol\":527:537  msg.sender */\n  caller\n    /* \"practise/Bank.sol\":519:524  owner */\n  0x01\n  0x00\n    /* \"practise/Bank.sol\":519:537  owner = msg.sender */\n  0x0100\n  exp\n  dup2\n  sload\n  dup2\n  0xffffffffffffffffffffffffffffffffffffffff\n  mul\n  not\n  and\n  swap1\n  dup4\n  0xffffffffffffffffffffffffffffffffffffffff\n  and\n  mul\n  or\n  swap1\n  sstore\n  pop\n    /* \"practise/Bank.sol\":381:1086  contract Bank is IBank{... */\n  dataSize(sub_0)\n  dup1\n  dataOffset(sub_0)\n  0x00\n  codecopy\n  0x00\n  return\nstop\n\nsub_0: assembly {\n        /* \"practise/Bank.sol\":381:1086  contract Bank is IBank{... */\n      mstore(0x40, 0x80)\n      jumpi(tag_1, lt(calldatasize, 0x04))\n      shr(0xe0, calldataload(0x00))\n      dup1\n      0x2e1a7d4d\n      eq\n      tag_2\n      jumpi\n      dup1\n      0x8da5cb5b\n      eq\n      tag_3\n      jumpi\n      dup1\n      0xd0e30db0\n      eq\n      tag_4\n      jumpi\n    tag_1:\n      revert(0x00, 0x00)\n        /* \"practise/Bank.sol\":550:733  function withdraw(uint _amount) override virtual  external {... */\n    tag_2:\n      callvalue\n      dup1\n      iszero\n      tag_5\n      jumpi\n      revert(0x00, 0x00)\n    tag_5:\n      pop\n      tag_6\n      0x04\n      dup1\n      calldatasize\n      sub\n      dup2\n      add\n      swap1\n      tag_7\n      swap2\n      swap1\n      tag_8\n      jump\t// in\n    tag_7:\n      tag_9\n      jump\t// in\n    tag_6:\n      stop\n        /* \"practise/Bank.sol\":446:467  address public  owner */\n    tag_3:\n      callvalue\n      dup1\n      iszero\n      tag_10\n      jumpi\n      revert(0x00, 0x00)\n    tag_10:\n      pop\n      tag_11\n      tag_12\n      jump\t// in\n    tag_11:\n      mload(0x40)\n      tag_13\n      swap2\n      swap1\n      tag_14\n      jump\t// in\n    tag_13:\n      mload(0x40)\n      dup1\n      swap2\n      sub\n      swap1\n      return\n        /* \"practise/Bank.sol\":936:1084  function deposit() external virtual  payable{... */\n    tag_4:\n      tag_15\n      tag_16\n      jump\t// in\n    tag_15:\n      stop\n        /* \"practise/Bank.sol\":550:733  function withdraw(uint _amount) override virtual  external {... */\n    tag_9:\n        /* \"practise/Bank.sol\":636:646  msg.sender */\n      caller\n        /* \"practise/Bank.sol\":627:646  owner == msg.sender */\n      0xffffffffffffffffffffffffffffffffffffffff\n      and\n        /* \"practise/Bank.sol\":627:632  owner */\n      0x01\n      0x00\n      swap1\n      sload\n      swap1\n      0x0100\n      exp\n      swap1\n      div\n      0xffffffffffffffffffffffffffffffffffffffff\n      and\n        /* \"practise/Bank.sol\":627:646  owner == msg.sender */\n      0xffffffffffffffffffffffffffffffffffffffff\n      and\n      eq\n        /* \"practise/Bank.sol\":619:679  require(owner == msg.sender, \"Only is allowed to withdraw \") */\n      tag_18\n      jumpi\n      mload(0x40)\n      0x08c379a000000000000000000000000000000000000000000000000000000000\n      dup2\n      mstore\n      0x04\n      add\n      tag_19\n      swap1\n      tag_20\n      jump\t// in\n    tag_19:\n      mload(0x40)\n      dup1\n      swap2\n      sub\n      swap1\n      revert\n    tag_18:\n        /* \"practise/Bank.sol\":689:726  callETH(payable(msg.sender), _amount) */\n      tag_21\n        /* \"practise/Bank.sol\":705:715  msg.sender */\n      caller\n        /* \"practise/Bank.sol\":718:725  _amount */\n      dup3\n        /* \"practise/Bank.sol\":689:696  callETH */\n      tag_22\n        /* \"practise/Bank.sol\":689:726  callETH(payable(msg.sender), _amount) */\n      jump\t// in\n    tag_21:\n        /* \"practise/Bank.sol\":550:733  function withdraw(uint _amount) override virtual  external {... */\n      pop\n      jump\t// out\n        /* \"practise/Bank.sol\":446:467  address public  owner */\n    tag_12:\n      0x01\n      0x00\n      swap1\n      sload\n      swap1\n      0x0100\n      exp\n      swap1\n      div\n      0xffffffffffffffffffffffffffffffffffffffff\n      and\n      dup2\n      jump\t// out\n        /* \"practise/Bank.sol\":936:1084  function deposit() external virtual  payable{... */\n    tag_16:\n        /* \"practise/Bank.sol\":1010:1011  0 */\n      0x00\n        /* \"practise/Bank.sol\":998:1007  msg.value */\n      callvalue\n        /* \"practise/Bank.sol\":998:1011  msg.value > 0 */\n      gt\n        /* \"practise/Bank.sol\":990:1036  require(msg.value > 0, \"Disposit must be > 0\") */\n      tag_24\n      jumpi\n      mload(0x40)\n      0x08c379a000000000000000000000000000000000000000000000000000000000\n      dup2\n      mstore\n      0x04\n      add\n      tag_25\n      swap1\n      tag_26\n      jump\t// in\n    tag_25:\n      mload(0x40)\n      dup1\n      swap2\n      sub\n      swap1\n      revert\n    tag_24:\n        /* \"practise/Bank.sol\":1068:1077  msg.value */\n      callvalue\n        /* \"practise/Bank.sol\":1046:1052  ledger */\n      0x00\n        /* \"practise/Bank.sol\":1046:1064  ledger[msg.sender] */\n      0x00\n        /* \"practise/Bank.sol\":1053:1063  msg.sender */\n      caller\n        /* \"practise/Bank.sol\":1046:1064  ledger[msg.sender] */\n      0xffffffffffffffffffffffffffffffffffffffff\n      and\n      0xffffffffffffffffffffffffffffffffffffffff\n      and\n      dup2\n      mstore\n      0x20\n      add\n      swap1\n      dup2\n      mstore\n      0x20\n      add\n      0x00\n      keccak256\n      0x00\n        /* \"practise/Bank.sol\":1046:1077  ledger[msg.sender] += msg.value */\n      dup3\n      dup3\n      sload\n      tag_27\n      swap2\n      swap1\n      tag_28\n      jump\t// in\n    tag_27:\n      swap3\n      pop\n      pop\n      dup2\n      swap1\n      sstore\n      pop\n        /* \"practise/Bank.sol\":936:1084  function deposit() external virtual  payable{... */\n      jump\t// out\n        /* \"practise/Bank.sol\":739:930  function callETH(address payable _to, uint _amount) internal {... */\n    tag_22:\n        /* \"practise/Bank.sol\":811:823  bool success */\n      0x00\n        /* \"practise/Bank.sol\":828:831  _to */\n      dup3\n        /* \"practise/Bank.sol\":828:836  _to.call */\n      0xffffffffffffffffffffffffffffffffffffffff\n      and\n        /* \"practise/Bank.sol\":844:851  _amount */\n      dup3\n        /* \"practise/Bank.sol\":828:856  _to.call{value: _amount}(\"\") */\n      mload(0x40)\n      tag_30\n      swap1\n      tag_31\n      jump\t// in\n    tag_30:\n      0x00\n      mload(0x40)\n      dup1\n      dup4\n      sub\n      dup2\n      dup6\n      dup8\n      gas\n      call\n      swap3\n      pop\n      pop\n      pop\n      returndatasize\n      dup1\n      0x00\n      dup2\n      eq\n      tag_34\n      jumpi\n      mload(0x40)\n      swap2\n      pop\n      and(add(returndatasize, 0x3f), not(0x1f))\n      dup3\n      add\n      0x40\n      mstore\n      returndatasize\n      dup3\n      mstore\n      returndatasize\n      0x00\n      0x20\n      dup5\n      add\n      returndatacopy\n      jump(tag_33)\n    tag_34:\n      0x60\n      swap2\n      pop\n    tag_33:\n      pop\n        /* \"practise/Bank.sol\":810:856  (bool success,) = _to.call{value: _amount}(\"\") */\n      pop\n      swap1\n      pop\n        /* \"practise/Bank.sol\":872:879  success */\n      dup1\n        /* \"practise/Bank.sol\":866:924  if ( !success ) {... */\n      tag_35\n      jumpi\n        /* \"practise/Bank.sol\":903:913  CallFail() */\n      mload(0x40)\n      0x12fcf49600000000000000000000000000000000000000000000000000000000\n      dup2\n      mstore\n      0x04\n      add\n      mload(0x40)\n      dup1\n      swap2\n      sub\n      swap1\n      revert\n        /* \"practise/Bank.sol\":866:924  if ( !success ) {... */\n    tag_35:\n        /* \"practise/Bank.sol\":800:930  {... */\n      pop\n        /* \"practise/Bank.sol\":739:930  function callETH(address payable _to, uint _amount) internal {... */\n      pop\n      pop\n      jump\t// out\n        /* \"#utility.yul\":88:205   */\n    tag_37:\n        /* \"#utility.yul\":197:198   */\n      0x00\n        /* \"#utility.yul\":194:195   */\n      0x00\n        /* \"#utility.yul\":187:199   */\n      revert\n        /* \"#utility.yul\":334:411   */\n    tag_39:\n        /* \"#utility.yul\":371:378   */\n      0x00\n        /* \"#utility.yul\":400:405   */\n      dup2\n        /* \"#utility.yul\":389:405   */\n      swap1\n      pop\n        /* \"#utility.yul\":334:411   */\n      swap2\n      swap1\n      pop\n      jump\t// out\n        /* \"#utility.yul\":417:539   */\n    tag_40:\n        /* \"#utility.yul\":490:514   */\n      tag_60\n        /* \"#utility.yul\":508:513   */\n      dup2\n        /* \"#utility.yul\":490:514   */\n      tag_39\n      jump\t// in\n    tag_60:\n        /* \"#utility.yul\":483:488   */\n      dup2\n        /* \"#utility.yul\":480:515   */\n      eq\n        /* \"#utility.yul\":470:533   */\n      tag_61\n      jumpi\n        /* \"#utility.yul\":529:530   */\n      0x00\n        /* \"#utility.yul\":526:527   */\n      0x00\n        /* \"#utility.yul\":519:531   */\n      revert\n        /* \"#utility.yul\":470:533   */\n    tag_61:\n        /* \"#utility.yul\":417:539   */\n      pop\n      jump\t// out\n        /* \"#utility.yul\":545:684   */\n    tag_41:\n        /* \"#utility.yul\":591:596   */\n      0x00\n        /* \"#utility.yul\":629:635   */\n      dup2\n        /* \"#utility.yul\":616:636   */\n      calldataload\n        /* \"#utility.yul\":607:636   */\n      swap1\n      pop\n        /* \"#utility.yul\":645:678   */\n      tag_63\n        /* \"#utility.yul\":672:677   */\n      dup2\n        /* \"#utility.yul\":645:678   */\n      tag_40\n      jump\t// in\n    tag_63:\n        /* \"#utility.yul\":545:684   */\n      swap3\n      swap2\n      pop\n      pop\n      jump\t// out\n        /* \"#utility.yul\":690:1019   */\n    tag_8:\n        /* \"#utility.yul\":749:755   */\n      0x00\n        /* \"#utility.yul\":798:800   */\n      0x20\n        /* \"#utility.yul\":786:795   */\n      dup3\n        /* \"#utility.yul\":777:784   */\n      dup5\n        /* \"#utility.yul\":773:796   */\n      sub\n        /* \"#utility.yul\":769:801   */\n      slt\n        /* \"#utility.yul\":766:885   */\n      iszero\n      tag_65\n      jumpi\n        /* \"#utility.yul\":804:883   */\n      tag_66\n      tag_37\n      jump\t// in\n    tag_66:\n        /* \"#utility.yul\":766:885   */\n    tag_65:\n        /* \"#utility.yul\":924:925   */\n      0x00\n        /* \"#utility.yul\":949:1002   */\n      tag_67\n        /* \"#utility.yul\":994:1001   */\n      dup5\n        /* \"#utility.yul\":985:991   */\n      dup3\n        /* \"#utility.yul\":974:983   */\n      dup6\n        /* \"#utility.yul\":970:992   */\n      add\n        /* \"#utility.yul\":949:1002   */\n      tag_41\n      jump\t// in\n    tag_67:\n        /* \"#utility.yul\":939:1002   */\n      swap2\n      pop\n        /* \"#utility.yul\":895:1012   */\n      pop\n        /* \"#utility.yul\":690:1019   */\n      swap3\n      swap2\n      pop\n      pop\n      jump\t// out\n        /* \"#utility.yul\":1025:1151   */\n    tag_42:\n        /* \"#utility.yul\":1062:1069   */\n      0x00\n        /* \"#utility.yul\":1102:1144   */\n      0xffffffffffffffffffffffffffffffffffffffff\n        /* \"#utility.yul\":1095:1100   */\n      dup3\n        /* \"#utility.yul\":1091:1145   */\n      and\n        /* \"#utility.yul\":1080:1145   */\n      swap1\n      pop\n        /* \"#utility.yul\":1025:1151   */\n      swap2\n      swap1\n      pop\n      jump\t// out\n        /* \"#utility.yul\":1157:1253   */\n    tag_43:\n        /* \"#utility.yul\":1194:1201   */\n      0x00\n        /* \"#utility.yul\":1223:1247   */\n      tag_70\n        /* \"#utility.yul\":1241:1246   */\n      dup3\n        /* \"#utility.yul\":1223:1247   */\n      tag_42\n      jump\t// in\n    tag_70:\n        /* \"#utility.yul\":1212:1247   */\n      swap1\n      pop\n        /* \"#utility.yul\":1157:1253   */\n      swap2\n      swap1\n      pop\n      jump\t// out\n        /* \"#utility.yul\":1259:1377   */\n    tag_44:\n        /* \"#utility.yul\":1346:1370   */\n      tag_72\n        /* \"#utility.yul\":1364:1369   */\n      dup2\n        /* \"#utility.yul\":1346:1370   */\n      tag_43\n      jump\t// in\n    tag_72:\n        /* \"#utility.yul\":1341:1344   */\n      dup3\n        /* \"#utility.yul\":1334:1371   */\n      mstore\n        /* \"#utility.yul\":1259:1377   */\n      pop\n      pop\n      jump\t// out\n        /* \"#utility.yul\":1383:1605   */\n    tag_14:\n        /* \"#utility.yul\":1476:1480   */\n      0x00\n        /* \"#utility.yul\":1514:1516   */\n      0x20\n        /* \"#utility.yul\":1503:1512   */\n      dup3\n        /* \"#utility.yul\":1499:1517   */\n      add\n        /* \"#utility.yul\":1491:1517   */\n      swap1\n      pop\n        /* \"#utility.yul\":1527:1598   */\n      tag_74\n        /* \"#utility.yul\":1595:1596   */\n      0x00\n        /* \"#utility.yul\":1584:1593   */\n      dup4\n        /* \"#utility.yul\":1580:1597   */\n      add\n        /* \"#utility.yul\":1571:1577   */\n      dup5\n        /* \"#utility.yul\":1527:1598   */\n      tag_44\n      jump\t// in\n    tag_74:\n        /* \"#utility.yul\":1383:1605   */\n      swap3\n      swap2\n      pop\n      pop\n      jump\t// out\n        /* \"#utility.yul\":1611:1780   */\n    tag_45:\n        /* \"#utility.yul\":1695:1706   */\n      0x00\n        /* \"#utility.yul\":1729:1735   */\n      dup3\n        /* \"#utility.yul\":1724:1727   */\n      dup3\n        /* \"#utility.yul\":1717:1736   */\n      mstore\n        /* \"#utility.yul\":1769:1773   */\n      0x20\n        /* \"#utility.yul\":1764:1767   */\n      dup3\n        /* \"#utility.yul\":1760:1774   */\n      add\n        /* \"#utility.yul\":1745:1774   */\n      swap1\n      pop\n        /* \"#utility.yul\":1611:1780   */\n      swap3\n      swap2\n      pop\n      pop\n      jump\t// out\n        /* \"#utility.yul\":1786:1964   */\n    tag_46:\n        /* \"#utility.yul\":1926:1956   */\n      0x4f6e6c7920697320616c6c6f77656420746f2077697468647261772000000000\n        /* \"#utility.yul\":1922:1923   */\n      0x00\n        /* \"#utility.yul\":1914:1920   */\n      dup3\n        /* \"#utility.yul\":1910:1924   */\n      add\n        /* \"#utility.yul\":1903:1957   */\n      mstore\n        /* \"#utility.yul\":1786:1964   */\n      pop\n      jump\t// out\n        /* \"#utility.yul\":1970:2336   */\n    tag_47:\n        /* \"#utility.yul\":2112:2115   */\n      0x00\n        /* \"#utility.yul\":2133:2200   */\n      tag_78\n        /* \"#utility.yul\":2197:2199   */\n      0x1c\n        /* \"#utility.yul\":2192:2195   */\n      dup4\n        /* \"#utility.yul\":2133:2200   */\n      tag_45\n      jump\t// in\n    tag_78:\n        /* \"#utility.yul\":2126:2200   */\n      swap2\n      pop\n        /* \"#utility.yul\":2209:2302   */\n      tag_79\n        /* \"#utility.yul\":2298:2301   */\n      dup3\n        /* \"#utility.yul\":2209:2302   */\n      tag_46\n      jump\t// in\n    tag_79:\n        /* \"#utility.yul\":2327:2329   */\n      0x20\n        /* \"#utility.yul\":2322:2325   */\n      dup3\n        /* \"#utility.yul\":2318:2330   */\n      add\n        /* \"#utility.yul\":2311:2330   */\n      swap1\n      pop\n        /* \"#utility.yul\":1970:2336   */\n      swap2\n      swap1\n      pop\n      jump\t// out\n        /* \"#utility.yul\":2342:2761   */\n    tag_20:\n        /* \"#utility.yul\":2508:2512   */\n      0x00\n        /* \"#utility.yul\":2546:2548   */\n      0x20\n        /* \"#utility.yul\":2535:2544   */\n      dup3\n        /* \"#utility.yul\":2531:2549   */\n      add\n        /* \"#utility.yul\":2523:2549   */\n      swap1\n      pop\n        /* \"#utility.yul\":2595:2604   */\n      dup2\n        /* \"#utility.yul\":2589:2593   */\n      dup2\n        /* \"#utility.yul\":2585:2605   */\n      sub\n        /* \"#utility.yul\":2581:2582   */\n      0x00\n        /* \"#utility.yul\":2570:2579   */\n      dup4\n        /* \"#utility.yul\":2566:2583   */\n      add\n        /* \"#utility.yul\":2559:2606   */\n      mstore\n        /* \"#utility.yul\":2623:2754   */\n      tag_81\n        /* \"#utility.yul\":2749:2753   */\n      dup2\n        /* \"#utility.yul\":2623:2754   */\n      tag_47\n      jump\t// in\n    tag_81:\n        /* \"#utility.yul\":2615:2754   */\n      swap1\n      pop\n        /* \"#utility.yul\":2342:2761   */\n      swap2\n      swap1\n      pop\n      jump\t// out\n        /* \"#utility.yul\":2767:2937   */\n    tag_48:\n        /* \"#utility.yul\":2907:2929   */\n      0x446973706f736974206d757374206265203e2030000000000000000000000000\n        /* \"#utility.yul\":2903:2904   */\n      0x00\n        /* \"#utility.yul\":2895:2901   */\n      dup3\n        /* \"#utility.yul\":2891:2905   */\n      add\n        /* \"#utility.yul\":2884:2930   */\n      mstore\n        /* \"#utility.yul\":2767:2937   */\n      pop\n      jump\t// out\n        /* \"#utility.yul\":2943:3309   */\n    tag_49:\n        /* \"#utility.yul\":3085:3088   */\n      0x00\n        /* \"#utility.yul\":3106:3173   */\n      tag_84\n        /* \"#utility.yul\":3170:3172   */\n      0x14\n        /* \"#utility.yul\":3165:3168   */\n      dup4\n        /* \"#utility.yul\":3106:3173   */\n      tag_45\n      jump\t// in\n    tag_84:\n        /* \"#utility.yul\":3099:3173   */\n      swap2\n      pop\n        /* \"#utility.yul\":3182:3275   */\n      tag_85\n        /* \"#utility.yul\":3271:3274   */\n      dup3\n        /* \"#utility.yul\":3182:3275   */\n      tag_48\n      jump\t// in\n    tag_85:\n        /* \"#utility.yul\":3300:3302   */\n      0x20\n        /* \"#utility.yul\":3295:3298   */\n      dup3\n        /* \"#utility.yul\":3291:3303   */\n      add\n        /* \"#utility.yul\":3284:3303   */\n      swap1\n      pop\n        /* \"#utility.yul\":2943:3309   */\n      swap2\n      swap1\n      pop\n      jump\t// out\n        /* \"#utility.yul\":3315:3734   */\n    tag_26:\n        /* \"#utility.yul\":3481:3485   */\n      0x00\n        /* \"#utility.yul\":3519:3521   */\n      0x20\n        /* \"#utility.yul\":3508:3517   */\n      dup3\n        /* \"#utility.yul\":3504:3522   */\n      add\n        /* \"#utility.yul\":3496:3522   */\n      swap1\n      pop\n        /* \"#utility.yul\":3568:3577   */\n      dup2\n        /* \"#utility.yul\":3562:3566   */\n      dup2\n        /* \"#utility.yul\":3558:3578   */\n      sub\n        /* \"#utility.yul\":3554:3555   */\n      0x00\n        /* \"#utility.yul\":3543:3552   */\n      dup4\n        /* \"#utility.yul\":3539:3556   */\n      add\n        /* \"#utility.yul\":3532:3579   */\n      mstore\n        /* \"#utility.yul\":3596:3727   */\n      tag_87\n        /* \"#utility.yul\":3722:3726   */\n      dup2\n        /* \"#utility.yul\":3596:3727   */\n      tag_49\n      jump\t// in\n    tag_87:\n        /* \"#utility.yul\":3588:3727   */\n      swap1\n      pop\n        /* \"#utility.yul\":3315:3734   */\n      swap2\n      swap1\n      pop\n      jump\t// out\n        /* \"#utility.yul\":3740:3920   */\n    tag_50:\n        /* \"#utility.yul\":3788:3865   */\n      0x4e487b7100000000000000000000000000000000000000000000000000000000\n        /* \"#utility.yul\":3785:3786   */\n      0x00\n        /* \"#utility.yul\":3778:3866   */\n      mstore\n        /* \"#utility.yul\":3885:3889   */\n      0x11\n        /* \"#utility.yul\":3882:3883   */\n      0x04\n        /* \"#utility.yul\":3875:3890   */\n      mstore\n        /* \"#utility.yul\":3909:3913   */\n      0x24\n        /* \"#utility.yul\":3906:3907   */\n      0x00\n        /* \"#utility.yul\":3899:3914   */\n      revert\n        /* \"#utility.yul\":3926:4117   */\n    tag_28:\n        /* \"#utility.yul\":3966:3969   */\n      0x00\n        /* \"#utility.yul\":3985:4005   */\n      tag_90\n        /* \"#utility.yul\":4003:4004   */\n      dup3\n        /* \"#utility.yul\":3985:4005   */\n      tag_39\n      jump\t// in\n    tag_90:\n        /* \"#utility.yul\":3980:4005   */\n      swap2\n      pop\n        /* \"#utility.yul\":4019:4039   */\n      tag_91\n        /* \"#utility.yul\":4037:4038   */\n      dup4\n        /* \"#utility.yul\":4019:4039   */\n      tag_39\n      jump\t// in\n    tag_91:\n        /* \"#utility.yul\":4014:4039   */\n      swap3\n      pop\n        /* \"#utility.yul\":4062:4063   */\n      dup3\n        /* \"#utility.yul\":4059:4060   */\n      dup3\n        /* \"#utility.yul\":4055:4064   */\n      add\n        /* \"#utility.yul\":4048:4064   */\n      swap1\n      pop\n        /* \"#utility.yul\":4083:4086   */\n      dup1\n        /* \"#utility.yul\":4080:4081   */\n      dup3\n        /* \"#utility.yul\":4077:4087   */\n      gt\n        /* \"#utility.yul\":4074:4110   */\n      iszero\n      tag_92\n      jumpi\n        /* \"#utility.yul\":4090:4108   */\n      tag_93\n      tag_50\n      jump\t// in\n    tag_93:\n        /* \"#utility.yul\":4074:4110   */\n    tag_92:\n        /* \"#utility.yul\":3926:4117   */\n      swap3\n      swap2\n      pop\n      pop\n      jump\t// out\n        /* \"#utility.yul\":4123:4270   */\n    tag_51:\n        /* \"#utility.yul\":4224:4235   */\n      0x00\n        /* \"#utility.yul\":4261:4264   */\n      dup2\n        /* \"#utility.yul\":4246:4264   */\n      swap1\n      pop\n        /* \"#utility.yul\":4123:4270   */\n      swap3\n      swap2\n      pop\n      pop\n      jump\t// out\n        /* \"#utility.yul\":4276:4390   */\n    tag_52:\n      pop\n      jump\t// out\n        /* \"#utility.yul\":4396:4794   */\n    tag_53:\n        /* \"#utility.yul\":4555:4558   */\n      0x00\n        /* \"#utility.yul\":4576:4659   */\n      tag_97\n        /* \"#utility.yul\":4657:4658   */\n      0x00\n        /* \"#utility.yul\":4652:4655   */\n      dup4\n        /* \"#utility.yul\":4576:4659   */\n      tag_51\n      jump\t// in\n    tag_97:\n        /* \"#utility.yul\":4569:4659   */\n      swap2\n      pop\n        /* \"#utility.yul\":4668:4761   */\n      tag_98\n        /* \"#utility.yul\":4757:4760   */\n      dup3\n        /* \"#utility.yul\":4668:4761   */\n      tag_52\n      jump\t// in\n    tag_98:\n        /* \"#utility.yul\":4786:4787   */\n      0x00\n        /* \"#utility.yul\":4781:4784   */\n      dup3\n        /* \"#utility.yul\":4777:4788   */\n      add\n        /* \"#utility.yul\":4770:4788   */\n      swap1\n      pop\n        /* \"#utility.yul\":4396:4794   */\n      swap2\n      swap1\n      pop\n      jump\t// out\n        /* \"#utility.yul\":4800:5179   */\n    tag_31:\n        /* \"#utility.yul\":4984:4987   */\n      0x00\n        /* \"#utility.yul\":5006:5153   */\n      tag_100\n        /* \"#utility.yul\":5149:5152   */\n      dup3\n        /* \"#utility.yul\":5006:5153   */\n      tag_53\n      jump\t// in\n    tag_100:\n        /* \"#utility.yul\":4999:5153   */\n      swap2\n      pop\n        /* \"#utility.yul\":5170:5173   */\n      dup2\n        /* \"#utility.yul\":5163:5173   */\n      swap1\n      pop\n        /* \"#utility.yul\":4800:5179   */\n      swap2\n      swap1\n      pop\n      jump\t// out\n\n    auxdata: 0xa26469706673582212202dd6f36c0e61fe632a8d0da6f855194056c0a0fd92f2002d8fe18024547bcf4b64736f6c634300081e0033\n}\n",
				"bytecode": {
					"linkReferences": {},
					"object": "6080604052348015600e575f5ffd5b503360015f6101000a81548173ffffffffffffffffffffffffffffffffffffffff021916908373ffffffffffffffffffffffffffffffffffffffff1602179055506104ff8061005c5f395ff3fe608060405260043610610033575f3560e01c80632e1a7d4d146100375780638da5cb5b1461005f578063d0e30db014610089575b5f5ffd5b348015610042575f5ffd5b5061005d600480360381019061005891906102c5565b610093565b005b34801561006a575f5ffd5b5061007361012f565b604051610080919061032f565b60405180910390f35b610091610154565b005b3373ffffffffffffffffffffffffffffffffffffffff1660015f9054906101000a900473ffffffffffffffffffffffffffffffffffffffff1673ffffffffffffffffffffffffffffffffffffffff1614610122576040517f08c379a0000000000000000000000000000000000000000000000000000000008152600401610119906103a2565b60405180910390fd5b61012c33826101ea565b50565b60015f9054906101000a900473ffffffffffffffffffffffffffffffffffffffff1681565b5f3411610196576040517f08c379a000000000000000000000000000000000000000000000000000000000815260040161018d9061040a565b60405180910390fd5b345f5f3373ffffffffffffffffffffffffffffffffffffffff1673ffffffffffffffffffffffffffffffffffffffff1681526020019081526020015f205f8282546101e19190610455565b92505081905550565b5f8273ffffffffffffffffffffffffffffffffffffffff168260405161020f906104b5565b5f6040518083038185875af1925050503d805f8114610249576040519150601f19603f3d011682016040523d82523d5f602084013e61024e565b606091505b5050905080610289576040517f12fcf49600000000000000000000000000000000000000000000000000000000815260040160405180910390fd5b505050565b5f5ffd5b5f819050919050565b6102a481610292565b81146102ae575f5ffd5b50565b5f813590506102bf8161029b565b92915050565b5f602082840312156102da576102d961028e565b5b5f6102e7848285016102b1565b91505092915050565b5f73ffffffffffffffffffffffffffffffffffffffff82169050919050565b5f610319826102f0565b9050919050565b6103298161030f565b82525050565b5f6020820190506103425f830184610320565b92915050565b5f82825260208201905092915050565b7f4f6e6c7920697320616c6c6f77656420746f20776974686472617720000000005f82015250565b5f61038c601c83610348565b915061039782610358565b602082019050919050565b5f6020820190508181035f8301526103b981610380565b9050919050565b7f446973706f736974206d757374206265203e20300000000000000000000000005f82015250565b5f6103f4601483610348565b91506103ff826103c0565b602082019050919050565b5f6020820190508181035f830152610421816103e8565b9050919050565b7f4e487b71000000000000000000000000000000000000000000000000000000005f52601160045260245ffd5b5f61045f82610292565b915061046a83610292565b925082820190508082111561048257610481610428565b5b92915050565b5f81905092915050565b50565b5f6104a05f83610488565b91506104ab82610492565b5f82019050919050565b5f6104bf82610495565b915081905091905056fea26469706673582212202dd6f36c0e61fe632a8d0da6f855194056c0a0fd92f2002d8fe18024547bcf4b64736f6c634300081e0033",
					"opcodes": "PUSH1 0x80 PUSH1 0x40 MSTORE CALLVALUE DUP1 ISZERO PUSH1 0xE JUMPI PUSH0 PUSH0 REVERT JUMPDEST POP CALLER PUSH1 0x1 PUSH0 PUSH2 0x100 EXP DUP2 SLOAD DUP2 PUSH20 0xFFFFFFFFFFFFFFFFFFFFFFFFFFFFFFFFFFFFFFFF MUL NOT AND SWAP1 DUP4 PUSH20 0xFFFFFFFFFFFFFFFFFFFFFFFFFFFFFFFFFFFFFFFF AND MUL OR SWAP1 SSTORE POP PUSH2 0x4FF DUP1 PUSH2 0x5C PUSH0 CODECOPY PUSH0 RETURN INVALID PUSH1 0x80 PUSH1 0x40 MSTORE PUSH1 0x4 CALLDATASIZE LT PUSH2 0x33 JUMPI PUSH0 CALLDATALOAD PUSH1 0xE0 SHR DUP1 PUSH4 0x2E1A7D4D EQ PUSH2 0x37 JUMPI DUP1 PUSH4 0x8DA5CB5B EQ PUSH2 0x5F JUMPI DUP1 PUSH4 0xD0E30DB0 EQ PUSH2 0x89 JUMPI JUMPDEST PUSH0 PUSH0 REVERT JUMPDEST CALLVALUE DUP1 ISZERO PUSH2 0x42 JUMPI PUSH0 PUSH0 REVERT JUMPDEST POP PUSH2 0x5D PUSH1 0x4 DUP1 CALLDATASIZE SUB DUP2 ADD SWAP1 PUSH2 0x58 SWAP2 SWAP1 PUSH2 0x2C5 JUMP JUMPDEST PUSH2 0x93 JUMP JUMPDEST STOP JUMPDEST CALLVALUE DUP1 ISZERO PUSH2 0x6A JUMPI PUSH0 PUSH0 REVERT JUMPDEST POP PUSH2 0x73 PUSH2 0x12F JUMP JUMPDEST PUSH1 0x40 MLOAD PUSH2 0x80 SWAP2 SWAP1 PUSH2 0x32F JUMP JUMPDEST PUSH1 0x40 MLOAD DUP1 SWAP2 SUB SWAP1 RETURN JUMPDEST PUSH2 0x91 PUSH2 0x154 JUMP JUMPDEST STOP JUMPDEST CALLER PUSH20 0xFFFFFFFFFFFFFFFFFFFFFFFFFFFFFFFFFFFFFFFF AND PUSH1 0x1 PUSH0 SWAP1 SLOAD SWAP1 PUSH2 0x100 EXP SWAP1 DIV PUSH20 0xFFFFFFFFFFFFFFFFFFFFFFFFFFFFFFFFFFFFFFFF AND PUSH20 0xFFFFFFFFFFFFFFFFFFFFFFFFFFFFFFFFFFFFFFFF AND EQ PUSH2 0x122 JUMPI PUSH1 0x40 MLOAD PUSH32 0x8C379A000000000000000000000000000000000000000000000000000000000 DUP2 MSTORE PUSH1 0x4 ADD PUSH2 0x119 SWAP1 PUSH2 0x3A2 JUMP JUMPDEST PUSH1 0x40 MLOAD DUP1 SWAP2 SUB SWAP1 REVERT JUMPDEST PUSH2 0x12C CALLER DUP3 PUSH2 0x1EA JUMP JUMPDEST POP JUMP JUMPDEST PUSH1 0x1 PUSH0 SWAP1 SLOAD SWAP1 PUSH2 0x100 EXP SWAP1 DIV PUSH20 0xFFFFFFFFFFFFFFFFFFFFFFFFFFFFFFFFFFFFFFFF AND DUP2 JUMP JUMPDEST PUSH0 CALLVALUE GT PUSH2 0x196 JUMPI PUSH1 0x40 MLOAD PUSH32 0x8C379A000000000000000000000000000000000000000000000000000000000 DUP2 MSTORE PUSH1 0x4 ADD PUSH2 0x18D SWAP1 PUSH2 0x40A JUMP JUMPDEST PUSH1 0x40 MLOAD DUP1 SWAP2 SUB SWAP1 REVERT JUMPDEST CALLVALUE PUSH0 PUSH0 CALLER PUSH20 0xFFFFFFFFFFFFFFFFFFFFFFFFFFFFFFFFFFFFFFFF AND PUSH20 0xFFFFFFFFFFFFFFFFFFFFFFFFFFFFFFFFFFFFFFFF AND DUP2 MSTORE PUSH1 0x20 ADD SWAP1 DUP2 MSTORE PUSH1 0x20 ADD PUSH0 KECCAK256 PUSH0 DUP3 DUP3 SLOAD PUSH2 0x1E1 SWAP2 SWAP1 PUSH2 0x455 JUMP JUMPDEST SWAP3 POP POP DUP2 SWAP1 SSTORE POP JUMP JUMPDEST PUSH0 DUP3 PUSH20 0xFFFFFFFFFFFFFFFFFFFFFFFFFFFFFFFFFFFFFFFF AND DUP3 PUSH1 0x40 MLOAD PUSH2 0x20F SWAP1 PUSH2 0x4B5 JUMP JUMPDEST PUSH0 PUSH1 0x40 MLOAD DUP1 DUP4 SUB DUP2 DUP6 DUP8 GAS CALL SWAP3 POP POP POP RETURNDATASIZE DUP1 PUSH0 DUP2 EQ PUSH2 0x249 JUMPI PUSH1 0x40 MLOAD SWAP2 POP PUSH1 0x1F NOT PUSH1 0x3F RETURNDATASIZE ADD AND DUP3 ADD PUSH1 0x40 MSTORE RETURNDATASIZE DUP3 MSTORE RETURNDATASIZE PUSH0 PUSH1 0x20 DUP5 ADD RETURNDATACOPY PUSH2 0x24E JUMP JUMPDEST PUSH1 0x60 SWAP2 POP JUMPDEST POP POP SWAP1 POP DUP1 PUSH2 0x289 JUMPI PUSH1 0x40 MLOAD PUSH32 0x12FCF49600000000000000000000000000000000000000000000000000000000 DUP2 MSTORE PUSH1 0x4 ADD PUSH1 0x40 MLOAD DUP1 SWAP2 SUB SWAP1 REVERT JUMPDEST POP POP POP JUMP JUMPDEST PUSH0 PUSH0 REVERT JUMPDEST PUSH0 DUP2 SWAP1 POP SWAP2 SWAP1 POP JUMP JUMPDEST PUSH2 0x2A4 DUP2 PUSH2 0x292 JUMP JUMPDEST DUP2 EQ PUSH2 0x2AE JUMPI PUSH0 PUSH0 REVERT JUMPDEST POP JUMP JUMPDEST PUSH0 DUP2 CALLDATALOAD SWAP1 POP PUSH2 0x2BF DUP2 PUSH2 0x29B JUMP JUMPDEST SWAP3 SWAP2 POP POP JUMP JUMPDEST PUSH0 PUSH1 0x20 DUP3 DUP5 SUB SLT ISZERO PUSH2 0x2DA JUMPI PUSH2 0x2D9 PUSH2 0x28E JUMP JUMPDEST JUMPDEST PUSH0 PUSH2 0x2E7 DUP5 DUP3 DUP6 ADD PUSH2 0x2B1 JUMP JUMPDEST SWAP2 POP POP SWAP3 SWAP2 POP POP JUMP JUMPDEST PUSH0 PUSH20 0xFFFFFFFFFFFFFFFFFFFFFFFFFFFFFFFFFFFFFFFF DUP3 AND SWAP1 POP SWAP2 SWAP1 POP JUMP JUMPDEST PUSH0 PUSH2 0x319 DUP3 PUSH2 0x2F0 JUMP JUMPDEST SWAP1 POP SWAP2 SWAP1 POP JUMP JUMPDEST PUSH2 0x329 DUP2 PUSH2 0x30F JUMP JUMPDEST DUP3 MSTORE POP POP JUMP JUMPDEST PUSH0 PUSH1 0x20 DUP3 ADD SWAP1 POP PUSH2 0x342 PUSH0 DUP4 ADD DUP5 PUSH2 0x320 JUMP JUMPDEST SWAP3 SWAP2 POP POP JUMP JUMPDEST PUSH0 DUP3 DUP3 MSTORE PUSH1 0x20 DUP3 ADD SWAP1 POP SWAP3 SWAP2 POP POP JUMP JUMPDEST PUSH32 0x4F6E6C7920697320616C6C6F77656420746F2077697468647261772000000000 PUSH0 DUP3 ADD MSTORE POP JUMP JUMPDEST PUSH0 PUSH2 0x38C PUSH1 0x1C DUP4 PUSH2 0x348 JUMP JUMPDEST SWAP2 POP PUSH2 0x397 DUP3 PUSH2 0x358 JUMP JUMPDEST PUSH1 0x20 DUP3 ADD SWAP1 POP SWAP2 SWAP1 POP JUMP JUMPDEST PUSH0 PUSH1 0x20 DUP3 ADD SWAP1 POP DUP2 DUP2 SUB PUSH0 DUP4 ADD MSTORE PUSH2 0x3B9 DUP2 PUSH2 0x380 JUMP JUMPDEST SWAP1 POP SWAP2 SWAP1 POP JUMP JUMPDEST PUSH32 0x446973706F736974206D757374206265203E2030000000000000000000000000 PUSH0 DUP3 ADD MSTORE POP JUMP JUMPDEST PUSH0 PUSH2 0x3F4 PUSH1 0x14 DUP4 PUSH2 0x348 JUMP JUMPDEST SWAP2 POP PUSH2 0x3FF DUP3 PUSH2 0x3C0 JUMP JUMPDEST PUSH1 0x20 DUP3 ADD SWAP1 POP SWAP2 SWAP1 POP JUMP JUMPDEST PUSH0 PUSH1 0x20 DUP3 ADD SWAP1 POP DUP2 DUP2 SUB PUSH0 DUP4 ADD MSTORE PUSH2 0x421 DUP2 PUSH2 0x3E8 JUMP JUMPDEST SWAP1 POP SWAP2 SWAP1 POP JUMP JUMPDEST PUSH32 0x4E487B7100000000000000000000000000000000000000000000000000000000 PUSH0 MSTORE PUSH1 0x11 PUSH1 0x4 MSTORE PUSH1 0x24 PUSH0 REVERT JUMPDEST PUSH0 PUSH2 0x45F DUP3 PUSH2 0x292 JUMP JUMPDEST SWAP2 POP PUSH2 0x46A DUP4 PUSH2 0x292 JUMP JUMPDEST SWAP3 POP DUP3 DUP3 ADD SWAP1 POP DUP1 DUP3 GT ISZERO PUSH2 0x482 JUMPI PUSH2 0x481 PUSH2 0x428 JUMP JUMPDEST JUMPDEST SWAP3 SWAP2 POP POP JUMP JUMPDEST PUSH0 DUP2 SWAP1 POP SWAP3 SWAP2 POP POP JUMP JUMPDEST POP JUMP JUMPDEST PUSH0 PUSH2 0x4A0 PUSH0 DUP4 PUSH2 0x488 JUMP JUMPDEST SWAP2 POP PUSH2 0x4AB DUP3 PUSH2 0x492 JUMP JUMPDEST PUSH0 DUP3 ADD SWAP1 POP SWAP2 SWAP1 POP JUMP JUMPDEST PUSH0 PUSH2 0x4BF DUP3 PUSH2 0x495 JUMP JUMPDEST SWAP2 POP DUP2 SWAP1 POP SWAP2 SWAP1 POP JUMP INVALID LOG2 PUSH5 0x6970667358 0x22 SLT KECCAK256 0x2D 0xD6 RETURN PUSH13 0xE61FE632A8D0DA6F855194056 0xC0 LOG0 REVERT SWAP3 CALLCODE STOP 0x2D DUP16 RJUMPI 0x8024 SLOAD PUSH28 0xCF4B64736F6C634300081E0033000000000000000000000000000000 "
				},
				"gasEstimates": {
					"creation": {
						"codeDepositCost": "255800",
						"executionCost": "24557",
						"totalCost": "280357"
					},
					"external": {
						"deposit()": "infinite",
						"owner()": "2508",
						"withdraw(uint256)": "infinite"
					},
					"internal": {
						"callETH(address payable,uint256)": "infinite"
					}
				},
				"methodIdentifiers": {
					"deposit()": "d0e30db0",
					"owner()": "8da5cb5b",
					"withdraw(uint256)": "2e1a7d4d"
				}
			},
			"storageLayout": {
				"storage": [
					{
						"astId": 8,
						"contract": "practise/Bank.sol:Bank",
						"label": "ledger",
						"offset": 0,
						"slot": "0",
						"type": "t_mapping(t_address,t_uint256)"
					},
					{
						"astId": 10,
						"contract": "practise/Bank.sol:Bank",
						"label": "owner",
						"offset": 0,
						"slot": "1",
						"type": "t_address"
					}
				],
				"types": {
					"t_address": {
						"encoding": "inplace",
						"label": "address",
						"numberOfBytes": "20"
					},
					"t_mapping(t_address,t_uint256)": {
						"encoding": "mapping",
						"key": "t_address",
						"label": "mapping(address => uint256)",
						"numberOfBytes": "32",
						"value": "t_uint256"
					},
					"t_uint256": {
						"encoding": "inplace",
						"label": "uint256",
						"numberOfBytes": "32"
					}
				}
			},
			"userdoc": {
				"kind": "user",
				"methods": {},
				"version": 1
			}
		}
	}
}